:1000000045C0000061C000005EC000005CC0000090
:100010005AC0000058C0000056C0000054C0000084
:1000200052C0000050C000004EC000004CC0000094
:100030004AC0000048C0000046C0000044C00000A4
:1000400042C0000040C000003EC000003CC00000B4
:100050003AC0000038C0000036C0000034C00000C4
:1000600032C0000030C000002EC000002CC00000D4
:100070002AC0000028C0000026C0000024C00000E4
:1000800022C0000020C000001EC0000011241FBEBE
:10009000CFEFD0E1DEBFCDBF11E0A0E0B1E0E4EBF7
:1000A000F8E000E00BBF02C007900D92A63DB1073B
:1000B000D9F721E0A6EDB1E001C01D92A83DB2073D
:1000C000E1F7CBD1F5C39CCF1F920F920FB60F92E1
:1000D00011240BB60F928F939F93EF93FF93809110
:1000E0006A0080FD15C08091D4019091D5010196E0
:1000F0009093D5018093D401EAE6F0E0808183609B
:10010000808381E090E09093D7018093D60109C06D
:10011000EAE6F0E080818E7F80831092D701109212
:10012000D601FF91EF919F918F910F900BBE0F9091
:100130000FBE0F901F90189581B38E7F81BB82B345
:10014000816082BB87B3816087BB89B7816089BFCB
:10015000EAE6F0E080818E7F8083789408954F9264
:100160005F926F927F928F929F92AF92BF92CF9247
:10017000DF92EF92FF920F931F93CF93DF93EA01E9
:1001800088B3816088BB80E090E079D26B017C010C
:100190002BEA3AEA4AEA50E428D34B015C0120E01A
:1001A00030E040E850E4C701B6011FD32B013C0109
:1001B00020E030E040E85FE3C501B401C8D1882306
:1001C0000CF45CC020E03FEF4FE757E4C301B201FD
:1001D00008D318160CF03DC020E030E04AE754E4A4
:1001E000C701B601B8D14B015C0120E030E04AE71D
:1001F00055E4FBD26B017C0120E030E040E85FE396
:10020000A6D1882304F120E03FEF4FE757E4C70170
:10021000B601E7D218169CF420E030E040E251E449
:10022000C501B401E2D2FFD106C080E991E0019797
:10023000F1F76150710961157105B9F720C0C70167
:10024000B601F1D102C061E070E0CB010197F1F796
:1002500016C020E030E04FE753E4C501B401C1D23D
:1002600018163CF4C301B201DED1CB010197F1F7BE
:1002700008C0C501B401D7D1062F01C001E00A951D
:10028000F1F788B38E7F88BBBE0180E090E0F7D1A4
:100290006B017C012BEA3AEA4AEA50E4A6D24B0110
:1002A0005C0120E030E040E850E4C701B6019DD297
:1002B0002B013C0120E030E040E85FE3C501B401E0
:1002C00046D188230CF45CC020E03FEF4FE757E4B1
:1002D000C301B20186D218160CF03DC020E030E018
:1002E0004AE754E4C701B60136D14B015C0120E076
:1002F00030E04AE755E479D26B017C0120E030E040
:1003000040E85FE324D1882304F120E03FEF4FE78A
:1003100057E4C701B60165D218169CF420E030E01E
:1003200040E251E4C501B40160D27DD106C080E94C
:1003300091E00197F1F76150710961157105B9F705
:1003400020C0C701B6016FD102C061E070E0CB01EF
:100350000197F1F716C020E030E04FE753E4C50104
:10036000B4013FD218163CF4C301B2015CD1CB01F9
:100370000197F1F708C0C501B40155D1162F01C08E
:1003800011E01A95F1F7DF91CF911F910F91FF9036
:10039000EF90DF90CF90BF90AF909F908F907F9025
:1003A0006F905F904F9008958F929F92AF92BF92FF
:1003B000CF92DF92EF92FF920F931F93CF93DF9331
:1003C000EB01BC0180E090E05AD19B01AC0160E000
:1003D00070E080E89FE3BFD020E034E244EF58E4CF
:1003E00004D221D16B017C018B01BE0180E090E041
:1003F00046D120E030E04AE754E4F7D14B015C01FC
:10040000B60180E090E03BD19B01AC013CD09B0168
:10041000AC01C501B4019FD006D17B01C0E0D0E0A2
:100420000CC08091D6019091D701892B49F0A80189
:10043000B80180E090E093DE2196CE15DF0588F3C9
:10044000DF91CF911F910F91FF90EF90DF90CF90B0
:10045000BF90AF909F908F9008956EDE8091D601EF
:100460009091D7010197D1F7E091D401F091D50196
:10047000EE0FFF1FE050FF4F68EE73E08081918127
:1004800093DFECCF5058BB27AA270ED070C161D1A3
:1004900030F066D120F031F49F3F11F41EF456C1C4
:1004A0000EF4E095E7FB4CC1E92F72D180F3BA1747
:1004B000620773078407950718F071F49EF58AC1E7
:1004C0000EF4E0950B2EBA2FA02D0B01B90190016F
:1004D0000C01CA01A0011124FF27591B99F0593FB3
:1004E00050F4503E68F11A16F040A22F232F342FFB
:1004F0004427585FF3CF469537952795A795F04049
:100500005395C9F77EF41F16BA0B620B730B840B5D
:10051000BAF09150A1F0FF0FBB1F661F771F881F15
:10052000C2F70EC0BA0F621F731F841F48F487956D
:1005300077956795B795F7959E3F08F0B3CF93955C
:10054000880F08F09927EE0F979587950895D4D0D6
:1005500008F481E008950CD00AC102D140F0F9D02E
:1005600030F021F45F3F19F0EBC0511134C1EEC0FF
:100570000FD198F39923C9F35523B1F3951B550B6C
:10058000BB27AA2762177307840738F09F5F5F4F66
:10059000220F331F441FAA1FA9F333D00E2E3AF0A7
:1005A000E0E830D091505040E695001CCAF729D0C1
:1005B000FE2F27D0660F771F881FBB1F2617370710
:1005C0004807AB07B0E809F0BB0B802DBF01FF2740
:1005D00093585F4F2AF09E3F510568F0B1C0FBC0B1
:1005E0005F3FECF3983EDCF3869577956795B7957A
:1005F000F7959F5FC9F7880F911D9695879597F995
:100600000895E1E0660F771F881FBB1F621773070D
:100610008407BA0720F0621B730B840BBA0BEE1F22
:1006200088F7E0950895BCD088F09F5790F0B92FD7
:100630009927B751A0F0D1F0660F771F881F991F37
:100640001AF0BA95C9F712C0B13081F0C3D0B1E049
:100650000895C0C0672F782F8827B85F39F0B93F59
:10066000CCF3869577956795B395D9F73EF4909539
:100670008095709561957F4F8F4F9F4F0895E894B7
:1006800009C097FB3EF490958095709561957F4FDA
:100690008F4F9F4F9923A9F0F92F96E9BB27939588
:1006A000F695879577956795B795F111F8CFFAF498
:1006B000BB0F11F460FF1BC06F5F7F4F8F4F9F4FC9
:1006C00016C0882311F096E911C0772321F09EE827
:1006D000872F762F05C0662371F096E8862F70E08D
:1006E00060E02AF09A95660F771F881FDAF7880F67
:1006F0009695879597F90895990F0008550FAA0BBD
:10070000E0E8FEEF16161706E807F907C0F0121624
:100710001306E407F50798F0621B730B840B950B27
:1007200039F40A2661F0232B242B252B21F408957C
:100730000A2609F4A140A6958FEF811D811D089519
:1007400097F99F6780E870E060E008959FEF80EC84
:10075000089500240A941616170618060906089527
:1007600000240A9412161306140605060895092E8D
:100770000394000C11F4882352F0BB0F40F4BF2BFC
:1007800011F460FF04C06F5F7F4F8F4F9F4F08953C
:1007900057FD9058440F551F59F05F3F71F0479532
:1007A000880F97FB991F61F09F3F79F08795089517
:1007B000121613061406551FF2CF4695F1DF08C036
:1007C000161617061806991FF1CF86957105610553
:1007D00008940895E894BB2766277727CB0197F9FB
:1007E00008958ADF08F48FEF08950BD0C0CFB1DFF2
:1007F00028F0B6DF18F0952309F0A2CFA7CF112477
:10080000EACFC6DFA0F3959FD1F3950F50E0551FB7
:10081000629FF001729FBB27F00DB11D639FAA2755
:10082000F00DB11DAA1F649F6627B00DA11D661FA4
:10083000829F2227B00DA11D621F739FB00DA11DC5
:10084000621F839FA00D611D221F749F3327A00D7F
:10085000611D231F849F600D211D822F762F6A2F1B
:1008600011249F5750408AF0E1F088234AF0EE0FA0
:10087000FF1FBB1F661F771F881F91505040A9F7AD
:100880009E3F510570F05CCFA6CF5F3FECF3983EE2
:10089000DCF3869577956795B795F795E7959F5F14
:1008A000C1F7FE2B880F911D9695879597F90895AE
:0408B000F894FFCFEA
:1008B4002A022A022A02EE012A02EE01B80170037A
:1008C40070033F032A02E402E402E40293024B02AF
:1008D4002A02EE01B801B801EE01EE0193022A02E8
:1008E4002A022A02EE012A02EE01B8017003700303
:1008F4003F032A02E402E402E40293024B022A02C6
:10090400EE01B8017201B8019F01B801EE01B8010E
:100914002A024B022A02E4023F0370033F032A0225
:10092400E402E40293024B022A02EE012A024B0281
:10093400930270033F03E4027003700370033F03E8
:10094400E4029302930270033F0370033F03E40243
:10095400E402E402E4029302E40293022A02B801EC
:10096400B801EE01EE0193022A02B8017201B80146
:100974009F01B801EE01B8017201B8019F01B801ED
:06098400EE01B801FFFFC7
:00000001FF
