S016000042696E6172795F436F756E7465722E737265636A
S113000045C000004BC0000049C0000047C00000CC
S113001045C0000043C0000041C000003FC00000D4
S11300203DC000003BC0000039C0000037C00000E4
S113003035C0000033C0000031C000002FC00000F4
S11300402DC000002BC0000029C0000027C0000004
S113005025C0000023C0000021C000001FC0000014
S11300601DC000001BC0000019C0000017C0000024
S113007015C0000013C0000011C000000FC0000034
S11300800DC000000BC0000009C0000011241FBEF9
S1130090CFEFD0E1DEBFCDBF2BD042C0B1CFCF93E5
S11300A0DF9300D000D0CDB7DEB71A82198214C016
S11300B01C821B8206C02B813C812F5F3F4F3C83F7
S11300C02B832B813C81283E3340ACF329813A8138
S11300D02F5F3F4F3A83298329813A8128173907B3
S11300E038F30F900F900F900F90DF91CF910895F8
S11300F08AB38F608ABB8BB31BBA87B317BA88B332
S1130100816088BBC0E0B09904C0CF5F88EC90E008
S1130110C6DF8BB3807F9C2F9F70892B8BBBF3CF63
S1070120F894FFCF7D
S9030000FC
