S011000050574D5F42617369632E73726563DE
S113000045C0000058C0000056C0000054C00000A5
S113001052C0000050C000004EC000004CC00000A0
S11300204AC0000048C0000046C0000044C00000B0
S113003042C0000040C000003EC000003CC00000C0
S11300403AC0000038C0000036C0000034C00000D0
S113005032C0000030C000002EC000002CC00000E0
S11300602AC0000028C0000026C0000024C00000F0
S113007022C0000020C000001EC000001CC0000000
S11300801AC0000018C0000016C0000011241FBED2
S1130090CFEFD0E1DEBFCDBF11E0A0E0B1E0ECE0F6
S11300A0F2E000E00BBF02C007900D92AA30B10746
S11300B0D9F77BD0A9C0A4CFE82FF0E0E050FF4FE0
S11300C0808185BB81E090E002C0880F991F6A950A
S11300D0E2F78093650008950F931F93CF93DF9306
S11300E000D000D0CDB7DEB7282F90E068EE73E0E3
S11300F064D0CB016AE070E060D08C8399E2299FE0
S1130100912D11248DEC92959F709B83289F912DA6
S11301101124969596959695989F812D11248695F0
S113012086958695880F382F330F330F830F392F19
S1130130381B3A83990F892F880F880F980F291B32
S1130140298300E010E019C0E1E0F0E0EC0FFD1FAE
S1130150E00FF11F602F8081AFDF8FE39FE10197F4
S1130160F1F700C0000000FF06C08FE99FE001978F
S1130170F1F700C000000F5F1F4F0430110524F396
S11301800F900F900F900F90DF91CF911F910F91CF
S1130190089587B3806187BB8FEF84BB8FE0809322
S11301A0640083B78B6683BF0895F3DFC0E0D0E0BB
S11301B08C2FC1BF219690DFFBCF97FB072E16F43F
S11301C0009406D077FD08D00BD007FC05D03EF490
S11301D0909581959F4F0895709561957F4F0895EF
S11301E0AA1BBB1B51E107C0AA1FBB1FA617B70759
S11301F010F0A61BB70B881F991F5A95A9F7809575
S10F02009095BC01CD010895F894FFCF47
S10D020C88BEC4A4B2A183BC80B074
S9030000FC
