:1000000045C000004BC0000049C0000047C00000D0
:1000100045C0000043C0000041C000003FC00000D8
:100020003DC000003BC0000039C0000037C00000E8
:1000300035C0000033C0000031C000002FC00000F8
:100040002DC000002BC0000029C0000027C0000008
:1000500025C0000023C0000021C000001FC0000018
:100060001DC000001BC0000019C0000017C0000028
:1000700015C0000013C0000011C000000FC0000038
:100080000DC000000BC0000009C0000011241FBEFD
:10009000CFEFD0E1DEBFCDBF2BD064C0B1CFCF93C7
:1000A000DF9300D000D0CDB7DEB71A82198214C01A
:1000B0001C821B8206C02B813C812F5F3F4F3C83FB
:1000C0002B832B813C81283E3340ACF329813A813C
:1000D0002F5F3F4F3A83298329813A8128173907B7
:1000E00038F30F900F900F900F90DF91CF910895FC
:1000F0008FE08ABB1BBA8BB38E7F8BBB8BB38260C6
:100100008BBB88EE93E0CBDF8BB38D7F8BBB8BB348
:1001100084608BBB88EE93E0C2DF8BB38B7F8BBB9D
:100120008BB388608BBB88EE93E0B9DF8BB3877F9E
:100130008BBB8BB384608BBB88EE93E0B0DF8BB35B
:100140008B7F8BBB8BB382608BBB88EE93E0A7DF8A
:100150008BB38D7F8BBB8BB381608BBB88EE93E0C1
:080160009EDFC9CFF894FFCF28
:00000001FF
