:1000000045C0000060C000005EC000005CC0000091
:100010005AC0000058C0000056C0000054C0000084
:1000200052C0000050C000004EC000004CC0000094
:100030004AC0000048C0000046C0000044C00000A4
:1000400043C0000040C000003EC000003CC00000B3
:100050003AC0000038C0000036C0000034C00000C4
:1000600032C0000030C000002EC000002CC00000D4
:100070002AC0000028C0000026C0000024C00000E4
:1000800022C0000020C000001EC0000011241FBEBE
:10009000CFEFD0E1DEBFCDBF11E0A0E0B1E0E2EAFA
:1000A000F3E000E00BBF02C007900D92AA30B10749
:1000B000D9F721E0AAE0B1E001C01D92AC30B2074F
:1000C000E1F72BD06CC19CCF1F920F920FB60F920D
:1000D00011248F939F9380910A0190910B010196B7
:1000E00090930B0180930A0186E082BF9F918F91CC
:1000F0000F900FBE0F901F901895E82FF0E0E05082
:10010000FF4F808185BB81E090E002C0880F991F7E
:100110006A95E2F78093650008958FEF84BBE4E66B
:10012000F0E080818F60808383B7846083BF87B76E
:10013000816087BF86E082BF789440910A01509128
:100140000B019A01ADECBCEC1BD196958795969569
:100150008795969587959C01220F331F880F991FCD
:10016000880F991F880F991F820F931F48175907EF
:1001700021F520910A0130910B0102D1AC01569575
:10018000479556954795569547959A01F9D0969576
:10019000879596958795969587959C01220F331F95
:1001A000880F991F880F991F880F991F820F931F1F
:1001B00063E0242F281B822FA0DF40910A01509179
:1001C0000B019A01ADECBCECDBD09695879596952A
:1001D0008795969587959C01220F331F880F991F4D
:1001E000880F991F880F991F820F931F9A01281B50
:1001F000390B2230310541F520910A0130910B0174
:100200003695279536952795ABE7B4E1B9D0AC0183
:10021000569547959A01ADECBCECB2D09695879572
:1002200096958795969587959C01220F331F880F89
:10023000991F880F991F880F991F820F931F62E0E3
:10024000342F381B832F59DF40910A0150910B0145
:100250009A01ADECBCEC94D09695879596958795D0
:10026000969587959C01220F331F880F991F880F41
:10027000991F880F991F820F931F9A01281B390B12
:100280002430310571F520910A0130910B0136952A
:1002900027953695279536952795A5ECB0E270D031
:1002A000AC01529542954F7045275F7045279A01E2
:1002B000ADECBCEC65D0969587959695879596950F
:1002C00087959C01220F331F880F991F880F991F54
:1002D000880F991F820F931F61E0342F381B832FE3
:1002E0000CDF40910A0150910B019A01ADECBCEC7E
:1002F00047D09695879596958795969587959C0175
:10030000220F331F880F991F880F991F880F991F7D
:10031000820F931F9A01281B390B2830310509F0F1
:100320000CCF20910A0130910B01329522952F704C
:1003300023273F702327A7E4B3E022D0AC015695D2
:10034000479556954795569547959A01ADECBCEC67
:1003500017D09695879596958795969587959C0144
:10036000220F331F880F991F880F991F880F991F1D
:10037000820F931F60E0342F381B832FBEDEDDCE4B
:10038000A29FB001B39FC001A39F700D811D1124D6
:10039000911DB29F700D811D1124911D0895F89437
:0203A000FFCF8D
:0A03A20088BEC4A4B2A183BC80B0E1
:00000001FF
