:1000000045C00000D2C200005EC000005CC000001D
:100010005AC0000058C0000056C0000054C0000084
:1000200052C0000050C000004EC000004CC0000094
:100030004AC0000048C0000046C0000044C00000A4
:10004000CDC2000040C000003EC000003CC0000027
:100050003AC0000038C0000036C0000034C00000C4
:1000600032C0000030C000002EC000002CC00000D4
:100070002AC0000028C0000026C0000024C00000E4
:1000800022C0000020C000001EC0000011241FBEBE
:10009000CFEFD0E1DEBFCDBF11E0A0E0B1E0E6E6FA
:1000A000FAE000E00BBF02C007900D92AA30B10742
:1000B000D9F721E0AAE0B1E001C01D92A731B20753
:1000C000E1F75CD2CEC49CCF20E030E02431310592
:1000D000B4F488B3816088BBE0EAFFE0CF01019708
:1000E000F1F781E0982F9A95F1F798B39E7F98BB2E
:1000F0003197F1F78A95F1F72F5F3F4FE7CF0895DA
:10010000E82FF0E0E050FF4F808185BB81E090E078
:1001100002C0880F991F6A95E2F7809365000895E1
:100120000F931F93CF93DF9300D000D0CDB7DEB7EE
:10013000FC019C0136952795369527953695279590
:10014000A5ECB0E27FD4AC01529542954F704527A3
:100150005F7045279A01ADECBCEC74D496958795F9
:1001600096958795969587959C01220F331F880F4A
:10017000991F880F991F880F991F820F931F9A014B
:10018000281B390B29839F0136952795369527958E
:10019000ABE7B4E157D4AC01569547959A01ADEC65
:1001A000BCEC50D4969587959695879596958795AE
:1001B0009C01220F331F880F991F880F991F880FEA
:1001C000991F820F931F9A01281B390B2A839F01C5
:1001D00039D4AC0156954795569547955695479510
:1001E0009A0130D49695879596958795969587959B
:1001F0009C01220F331F880F991F880F991F880FAA
:10020000991F820F931F9A01281B390B2B83CA0158
:10021000880F991F440F551F440F551F440F551F3A
:10022000480F591FE41BF50BEC8300E010E004308D
:1002300011053CF5E1E0F0E0EC0FFD1FE00FF11FD0
:100240008081811115C001151105C1F0F8013197A8
:1002500021E030E02C0F3D1FE20FF31F9081992326
:1002600069F0602F4DDF80E49FE10197F1F706C050
:10027000602F46DF80E49FE10197F1F70F5F1F4F8A
:10028000D6CF0F900F900F900F90DF91CF911F91CD
:100290000F9108958F929F92AF92BF92CF92DF926B
:1002A000EF92FF92CF93DF9383B18F7B83B98AE084
:1002B0008A95F1F783B1806483B985E38A95F1F774
:1002C00083B18F7B83B90F9BFECF109215011092E3
:1002D000140183B7826083BF0F99FECF13BE609174
:1002E00014017091150180E090E093D22DEC3CEC6C
:1002F00048E652E4F5D120E030E040E450E43FD35A
:100300006B017C01609310017093110180931201C5
:100310009093130124EA30E74DE75FE360910C010D
:1003200070910D0180910E0190910F0128D34B0126
:100330005C012AE037ED43E25CE3C701B6011FD35D
:100340009B01AC01C501B40163D16B017C016093D9
:100350000C0170930D0180930E0190930F0128D230
:100360004B015C01EB0120E030E048EF51E4C701B4
:10037000B60101D318163CF418BA15BA10926500EC
:10038000C0E0D0E002C0C401CBDECE01DF91CF914E
:10039000FF90EF90DF90CF90BF90AF909F908F90A5
:1003A00008954F925F926F927F928F929F92AF9239
:1003B000BF92CF92DF92EF92FF921F93CF93DF9382
:1003C00069DF90930B0180930A01181619060CF44B
:1003D0007BDEC0E0D0E0C436D1050CF099C088B314
:1003E00088BB80910A0190910B019C012650310934
:1003F000289FB001299F700D389F700D1124675FF1
:100400007F4F072E000C880B990B05D26B017C01E6
:100410002BEA3AEA4AEA50E4B2D24B015C0120E00E
:1004200030E040E850E4C701B601A9D22B013C01FD
:1004300020E030E040E85FE3C501B4014DD18823FE
:100440000CF45BC020E03FEF4FE757E4C301B2017B
:1004500092D218160CF03CC020E030E04AE754E499
:10046000C701B6013DD14B015C0120E030E04AE715
:1004700055E485D26B017C0120E030E040E85FE389
:100480002BD18823FCF020E03FEF4FE757E4C70172
:10049000B60171D2181694F420E030E040E251E445
:1004A000C501B4016CD289D16115710539F180E9BA
:1004B00091E00197F1F761507109F6CFC701B601DC
:1004C0007CD102C061E070E0CB010197F1F716C06A
:1004D00020E030E04FE753E4C501B4014CD21816D8
:1004E0003CF4C301B20169D1CB010197F1F709C016
:1004F000C501B40162D1162F01C011E0812F8A9588
:10050000F1F7C8DE90930B0180930A01219663CF27
:10051000DF91CF911F91FF90EF90DF90CF90BF9030
:10052000AF909F908F907F906F905F904F900895C5
:100530008FEF84BB8FE0809364008AB381608ABBB5
:1005400081B3816081BB82B3816082BBEAE6F0E067
:1005500080818260808389B7816089BF82B1806435
:1005600082B982B18F7782B983B7826083BF87B740
:10057000816087BF8EEF82BF7894089587B38160D2
:1005800087BBD6DF80911601882319F0813031F0C6
:10059000F9CF8BB381608BBB04DFF4CF8BB38E7F3D
:1005A0008BBB15BA10926500EDCF1F920F920FB65C
:1005B0000F9211248F9380911601882319F08130B6
:1005C00029F006C081E08093160102C01092160146
:1005D0008F910F900FBE0F901F9018951F920F9242
:1005E0000FB60F9211248F939F93809114019091D5
:1005F0001501019690931501809314018EEF82BF2F
:100600009F918F910F900FBE0F901F90189550588B
:10061000BB27AA270ED075C166D130F06BD120F070
:1006200031F49F3F11F41EF45BC10EF4E095E7FB3B
:1006300051C1E92F77D180F3BA1762077307840796
:10064000950718F071F49EF58FC10EF4E0950B2E0E
:10065000BA2FA02D0B01B90190010C01CA01A00114
:100660001124FF27591B99F0593F50F4503E68F16F
:100670001A16F040A22F232F342F4427585FF3CFB0
:10068000469537952795A795F0405395C9F77EF481
:100690001F16BA0B620B730B840BBAF09150A1F0CA
:1006A000FF0FBB1F661F771F881FC2F70EC0BA0F50
:1006B000621F731F841F48F4879577956795B795D8
:1006C000F7959E3F08F0B3CF9395880F08F09927D0
:1006D000EE0F979587950895D9D008F481E0089595
:1006E0000CD00FC107D140F0FED030F021F45F3FB5
:1006F00019F0F0C0511139C1F3C014D198F3992306
:10070000C9F35523B1F3951B550BBB27AA276217D5
:100710007307840738F09F5F5F4F220F331F441F1A
:10072000AA1FA9F333D00E2E3AF0E0E830D0915052
:100730005040E695001CCAF729D0FE2F27D0660F3F
:10074000771F881FBB1F261737074807AB07B0E87E
:1007500009F0BB0B802DBF01FF2793585F4F2AF094
:100760009E3F510568F0B6C000C15F3FECF3983E74
:10077000DCF3869577956795B795F7959F5FC9F7F1
:10078000880F911D9695879597F90895E1E0660F7A
:10079000771F881FBB1F621773078407BA0720F0F3
:1007A000621B730B840BBA0BEE1F88F7E09508955C
:1007B00004D06894B111D9C00895BCD088F09F5777
:1007C00090F0B92F9927B751A0F0D1F0660F771F9D
:1007D000881F991F1AF0BA95C9F712C0B13081F07D
:1007E000C3D0B1E00895C0C0672F782F8827B85FC5
:1007F00039F0B93FCCF3869577956795B395D9F7DE
:100800003EF490958095709561957F4F8F4F9F4FE7
:100810000895E89409C097FB3EF4909580957095F3
:1008200061957F4F8F4F9F4F9923A9F0F92F96E93C
:10083000BB279395F695879577956795B795F111B1
:10084000F8CFFAF4BB0F11F460FF1BC06F5F7F4F4E
:100850008F4F9F4F16C0882311F096E911C0772360
:1008600021F09EE8872F762F05C0662371F096E869
:10087000862F70E060E02AF09A95660F771F881F38
:10088000DAF7880F9695879597F90895990F0008DC
:10089000550FAA0BE0E8FEEF16161706E807F90752
:1008A000C0F012161306E407F50798F0621B730BED
:1008B000840B950B39F40A2661F0232B242B252B6E
:1008C00021F408950A2609F4A140A6958FEF811D11
:1008D000811D089597F99F6780E870E060E00895B2
:1008E0009FEF80EC089500240A9416161706180648
:1008F0000906089500240A94121613061406050624
:100900000895092E0394000C11F4882352F0BB0FB4
:1009100040F4BF2B11F460FF04C06F5F7F4F8F4F17
:100920009F4F089557FD9058440F551F59F05F3F52
:1009300071F04795880F97FB991F61F09F3F79F001
:1009400087950895121613061406551FF2CF469583
:10095000F1DF08C0161617061806991FF1CF869505
:100960007105610508940895E894BB2766277727E9
:10097000CB0197F908958ADF08F48FEF08950BD023
:10098000C0CFB1DF28F0B6DF18F0952309F0A2CF71
:10099000A7CF1124EACFC6DFA0F3959FD1F3950F1F
:1009A00050E0551F629FF001729FBB27F00DB11DF3
:1009B000639FAA27F00DB11DAA1F649F6627B00D83
:1009C000A11D661F829F2227B00DA11D621F739F6C
:1009D000B00DA11D621F839FA00D611D221F749F7A
:1009E0003327A00D611D231F849F600D211D822FC1
:1009F000762F6A2F11249F5750408AF0E1F0882308
:100A00004AF0EE0FFF1FBB1F661F771F881F915014
:100A10005040A9F79E3F510570F05CCFA6CF5F3FD5
:100A2000ECF3983EDCF3869577956795B795F79547
:100A3000E7959F5FC1F7FE2B880F911D96958795CF
:100A400097F90895A29FB001B39FC001A39F700DB5
:100A5000811D1124911DB29F700D811D1124911DC6
:060A60000895F894FFCF99
:0A0A660088BEC4A4B2A183BC80B016
:00000001FF
