:1000000045C0000054C0000051C000004FC00000B7
:100010004DC000004BC0000049C0000047C00000B8
:1000200045C0000043C0000041C000003FC00000C8
:100030003DC000003BC0000039C0000037C00000D8
:1000400035C0000033C0000031C000002FC00000E8
:100050002DC000002BC0000029C0000027C00000F8
:1000600025C0000023C0000021C000001FC0000008
:100070001DC000001BC0000019C0000017C0000018
:1000800015C0000013C0000011C0000011241FBEE5
:10009000CFEFD0E1DEBFCDBF21E0A0E0B1E001C0F5
:1000A0001D92A230B207E1F73FD064C0A9CF1F92E2
:1000B0000F920FB60F9211248F938091010181113D
:1000C00003C081E08093010180910101813019F426
:1000D00082E08093010180910101823019F483E074
:1000E0008093010180910101833011F4109201018C
:1000F0008F910F900FBE0F901F9018958FEF87BBB9
:1001000011BA82B3816082BB11BE83B78B6683BF95
:10011000EAE6F0E082E0808380818260808389B7B4
:10012000816089BF789408951092010184E68093DC
:100130000001E4DF80910101813059F028F0823024
:1001400019F0833079F0F6CF88B38F7788BB11BE72
:10015000F1CF88B3806888BB8CE48093000183EB87
:1001600081BFE8CF88B38F7788BB86E68093000194
:0801700081BFE0CFF894FFCF3E
:00000001FF
