S00D0000746F6E65332E737265632E
S113000045C0000058C0000056C0000054C00000A5
S113001052C0000050C000004EC000004CC00000A0
S11300204AC0000048C0000046C0000044C00000B0
S113003042C0000040C000003EC000003CC00000C0
S11300403AC0000038C0000036C0000034C00000D0
S113005032C0000030C000002EC000002CC00000E0
S11300602AC0000028C0000026C0000024C00000F0
S113007022C0000020C000001EC000001CC0000000
S11300801AC0000018C0000016C0000011241FBED2
S1130090CFEFD0E1DEBFCDBF11E0A0E0B1E0ECE4F2
S11300A0F8E000E00BBF02C007900D92A031B10749
S11300B0D9F77AD1C9C3A4CF4F925F926F927F923E
S11300C08F929F92AF92BF92CF92DF92EF92FF9264
S11300D00F931F93CF93DF93EA0185B3816085BBB0
S11300E080E090E098D26B017C012BEA3AEA4AEA7C
S11300F050E447D34B015C0120E030E040E850E499
S1130100C701B6013ED32B013C0120E030E040E8BA
S11301105FE3C501B401E7D188230CF45CC020E09F
S11301203FEF4FE757E4C301B20127D318160CF091
S11301303DC020E030E04AE754E4C701B601D7D11E
S11301404B015C0120E030E04AE755E41AD36B012F
S11301507C0120E030E040E85FE3C5D1882304F16E
S113016020E03FEF4FE757E4C701B60106D3181666
S11301709CF420E030E040E251E4C501B40101D335
S11301801ED206C080E991E00197F1F76150710930
S113019061157105B9F720C0C701B60110D202C0BC
S11301A061E070E0CB010197F1F716C020E030E088
S11301B04FE753E4C501B401E0D218163CF4C3017F
S11301C0B201FDD1CB010197F1F708C0C501B4011B
S11301D0F6D1062F01C001E00A95F1F785B38E7FB1
S11301E085BBBE0180E090E016D26B017C012BEA56
S11301F03AEA4AEA50E4C5D24B015C0120E030E01F
S113020040E850E4C701B601BCD22B013C0120E018
S113021030E040E85FE3C501B40165D188230CF404
S11302205CC020E03FEF4FE757E4C301B201A5D221
S113023018160CF03DC020E030E04AE754E4C70152
S1130240B60155D14B015C0120E030E04AE755E4AA
S113025098D26B017C0120E030E040E85FE343D1B9
S1130260882304F120E03FEF4FE757E4C701B601CC
S113027084D218169CF420E030E040E251E4C50139
S1130280B4017FD29CD106C080E991E00197F1F7D7
S11302906150710961157105B9F720C0C701B60134
S11302A08ED102C061E070E0CB010197F1F716C076
S11302B020E030E04FE753E4C501B4015ED21816E4
S11302C03CF4C301B2017BD1CB010197F1F708C023
S11302D0C501B40174D1162F01C011E01A95F1F7CC
S11302E0DF91CF911F910F91FF90EF90DF90CF900E
S11302F0BF90AF909F908F907F906F905F904F9042
S113030008958F929F92AF92BF92CF92DF92EF9215
S1130310FF920F931F93CF93DF93EB01BC0180E017
S113032090E079D19B01AC0160E070E080E89FE34C
S1130330DED020E034E244EF58E423D240D16B0114
S11303407C018B01BE0180E090E065D120E030E0CB
S11303504AE754E416D24B015C01B60180E090E018
S11303605AD19B01AC015BD09B01AC01C501B40126
S1130370BED025D17B01C0E0D0E006C0A801B80101
S113038080E090E099DE2196CE15DF05B8F3DF9189
S1130390CF911F910F91FF90EF90DF90CF90BF907E
S11303A0AF909F908F900895CF93DF93CDB7DEB732
S11303B060970FB6F894DEBF0FBECDBF80E1E0E0DA
S11303C0F1E0DE01119601900D928A95E1F717BADA
S11303D081E088BB84B3816084BB00E010E002C08C
S11303E000E010E0B09902C081E001C080E0882301
S11303F079F0F801EE0FFF1F81E090E08C0F9D1F54
S1130400E80FF91F6CE271E0808191817ADFEACF15
S11304100830110529F30F5F1F4FE4CF5058BB2755
S1130420AA270ED070C161D130F066D120F031F42A
S11304309F3F11F41EF456C10EF4E095E7FB4CC146
S1130440E92F72D180F3BA176207730784079507FF
S113045018F071F49EF58AC10EF4E0950B2EBA2FB4
S1130460A02D0B01B90190010C01CA01A0011124B6
S1130470FF27591B99F0593F50F4503E68F11A1662
S1130480F040A22F232F342F4427585FF3CF4695F3
S113049037952795A795F0405395C9F77EF41F1615
S11304A0BA0B620B730B840BBAF09150A1F0FF0FDF
S11304B0BB1F661F771F881FC2F70EC0BA0F621FCB
S11304C0731F841F48F4879577956795B795F795BB
S11304D09E3F08F0B3CF9395880F08F09927EE0F4D
S11304E0979587950895D4D008F481E008950CD0A9
S11304F00AC102D140F0F9D030F021F45F3F19F085
S1130500EBC0511134C1EEC00FD198F39923C9F354
S11305105523B1F3951B550BBB27AA276217730705
S1130520840738F09F5F5F4F220F331F441FAA1FB9
S1130530A9F333D00E2E3AF0E0E830D09150504079
S1130540E695001CCAF729D0FE2F27D0660F771F27
S1130550881FBB1F261737074807AB07B0E809F009
S1130560BB0B802DBF01FF2793585F4F2AF09E3F9E
S1130570510568F0B1C0FBC05F3FECF3983EDCF37B
S1130580869577956795B795F7959F5FC9F7880F17
S1130590911D9695879597F90895E1E0660F771F69
S11305A0881FBB1F621773078407BA0720F0621BFA
S11305B0730B840BBA0BEE1F88F7E0950895BCD03B
S11305C088F09F5790F0B92F9927B751A0F0D1F038
S11305D0660F771F881F991F1AF0BA95C9F712C0C2
S11305E0B13081F0C3D0B1E00895C0C0672F782F37
S11305F08827B85F39F0B93FCCF38695779567952E
S1130600B395D9F73EF490958095709561957F4F99
S11306108F4F9F4F0895E89409C097FB3EF490953F
S11306208095709561957F4F8F4F9F4F9923A9F0C7
S1130630F92F96E9BB279395F69587957795679556
S1130640B795F111F8CFFAF4BB0F11F460FF1BC09A
S11306506F5F7F4F8F4F9F4F16C0882311F096E92D
S113066011C0772321F09EE8872F762F05C06623DB
S113067071F096E8862F70E060E02AF09A95660F94
S1130680771F881FDAF7880F9695879597F908954D
S1130690990F0008550FAA0BE0E8FEEF161617068F
S11306A0E807F907C0F012161306E407F50798F0F7
S11306B0621B730B840B950B39F40A2661F0232B10
S11306C0242B252B21F408950A2609F4A140A6958C
S11306D08FEF811D811D089597F99F6780E870E071
S11306E060E008959FEF80EC089500240A941616A4
S11306F0170618060906089500240A94121613060C
S1130700140605060895092E0394000C11F4882399
S113071052F0BB0F40F4BF2B11F460FF04C06F5FB5
S11307207F4F8F4F9F4F089557FD9058440F551F8B
S113073059F05F3F71F04795880F97FB991F61F05F
S11307409F3F79F087950895121613061406551FD6
S1130750F2CF4695F1DF08C0161617061806991F42
S1130760F1CF86957105610508940895E894BB2737
S113077066277727CB0197F908958ADF08F48FEF6E
S113078008950BD0C0CFB1DF28F0B6DF18F0952361
S113079009F0A2CFA7CF1124EACFC6DFA0F3959F1B
S11307A0D1F3950F50E0551F629FF001729FBB2754
S11307B0F00DB11D639FAA27F00DB11DAA1F649F00
S11307C06627B00DA11D661F829F2227B00DA11DB3
S11307D0621F739FB00DA11D621F839FA00D611D39
S11307E0221F749F3327A00D611D231F849F600D5A
S11307F0211D822F762F6A2F11249F5750408AF093
S1130800E1F088234AF0EE0FFF1FBB1F661F771F1E
S1130810881F91505040A9F79E3F510570F05CCF5E
S1130820A6CF5F3FECF3983EDCF38695779567950A
S1130830B795F795E7959F5FC1F7FE2B880F911D3C
S10F08409695879597F90895F894FFCFDA
S113084C0B024B029302BA0210037003DC0317046D
S9030000FC
