S00D000042617369632E7372656335
S113000054C000005AC0000058C0000056C0000090
S113001054C0000052C0000050C000004EC0000098
S11300204CC000004AC0000048C0000046C00000A8
S113003044C0000042C0000040C000003EC00000B8
S11300403CC000003AC0000038C0000036C00000C8
S113005034C0000032C0000030C000002EC00000D8
S11300602CC000002AC0000028C0000026C00000E8
S113007024C0000022C0000020C000001EC00000F8
S11300801CC000001AC0000018C0000005A84CCD18
S1130090B2D44EB93836A9020C50B9918688083CBE
S11300A0A6AAAA2ABE000000803F11241FBECFEFDB
S11300B0D0E1DEBFCDBF09D0D4C2A2CF87B380695F
S11300C087BB83B78B6683BF0895F8DF00E010E039
S11300D0B801012E000C880B990BC9D020E030E048
S11300E044E353E42ED028ED3FE049E450E44FD1FB
S11300F0B1D120E030E04FE753E449D16B017C01FA
S11301009F7787D0C62F20E030E0A901C701B60150
S11301103AD1882334F088B3806888BBC095C1BFC6
S113012004C088B38F7788BBC1BF0F5F1F4F2FEF09
S113013089EF90E0215080409040E1F700C000003A
S1130140C7CF0CD0E6C0DED040F0D5D030F021F4DB
S11301505F3F19F0C7C0511110C1CAC0EBD098F36A
S11301609923C9F35523B1F3951B550BBB27AA2734
S113017062177307840738F09F5F5F4F220F331FA6
S1130180441FAA1FA9F333D00E2E3AF0E0E830D072
S113019091505040E695001CCAF729D0FE2F27D075
S11301A0660F771F881FBB1F261737074807AB0743
S11301B0B0E809F0BB0B802DBF01FF2793585F4FB8
S11301C02AF09E3F510568F08DC0D7C05F3FECF325
S11301D0983EDCF3869577956795B795F7959F5F7D
S11301E0C9F7880F911D9695879597F90895E1E0D1
S11301F0660F771F881FBB1F621773078407BA0730
S113020020F0621B730B840BBA0BEE1F88F7E0958A
S1130210089598D088F09F5790F0B92F9927B75137
S1130220A0F0D1F0660F771F881F991F1AF0BA95B6
S1130230C9F712C0B13081F09FD0B1E008959CC0DD
S1130240672F782F8827B85F39F0B93FCCF38695AC
S113025077956795B395D9F73EF490958095709509
S113026061957F4F8F4F9F4F0895E89409C097FB86
S11302703EF490958095709561957F4F8F4F9F4F79
S11302809923A9F0F92F96E9BB279395F6958795BD
S113029077956795B795F111F8CFFAF4BB0F11F480
S11302A060FF1BC06F5F7F4F8F4F9F4F16C0882327
S11302B011F096E911C0772321F09EE8872F762F5D
S11302C005C0662371F096E8862F70E060E02AF09E
S11302D09A95660F771F881FDAF7880F969587958A
S11302E097F9089597F99F6780E870E060E00895B2
S11302F09FEF80EC089500240A941616170618063A
S11303000906089500240A94121613061406050615
S11303100895092E0394000C11F4882352F0BB0FA6
S113032040F4BF2B11F460FF04C06F5F7F4F8F4F09
S11303309F4F089557FD9058440F551F59F05F3F44
S113034071F04795880F97FB991F61F09F3F79F0F3
S113035087950895121613061406551FF2CF469575
S1130360F1DF08C0161617061806991FF1CF8695F7
S11303707105610508940895E894BB2766277727DB
S1130380CB0197F908956CD008F48FEF08950BD042
S1130390C0CFB1DF28F0B6DF18F0952309F0A2CF63
S11303A0A7CF1124EACFC6DFA0F3959FD1F3950F11
S11303B050E0551F629FF001729FBB27F00DB11DE5
S11303C0639FAA27F00DB11DAA1F649F6627B00D75
S11303D0A11D661F829F2227B00DA11D621F739F5E
S11303E0B00DA11D621F839FA00D611D221F749F6C
S11303F03327A00D611D231F849F600D211D822FB3
S1130400762F6A2F11249F5750408AF0E1F08823F9
S11304104AF0EE0FFF1FBB1F661F771F881F915006
S11304205040A9F79E3F510570F05CCFA6CF5F3FC7
S1130430ECF3983EDCF3869577956795B795F79539
S1130440E7959F5FC1F7FE2B880F911D96958795C1
S113045097F908959F9329D00F9007FCEE5F4CC045
S1130460990F0008550FAA0BE0E8FEEF16161706C1
S1130470E807F907C0F012161306E407F50798F029
S1130480621B730B840B950B39F40A2661F0232B42
S1130490242B252B21F408950A2609F4A140A695BE
S11304A08FEF811D811D089523CF4CDFE8F3E8947D
S11304B0E0E0BB279F57F0F02AED3FE049EC06C08F
S11304C0EE0FBB0F661F771F881F28F0B23A620732
S11304D07307840728F0B25A620B730B840BE395FD
S11304E09A9572F7803830F49A95BB0F661F771F80
S11304F0881FD2F7904873C0EF93E0FF06C0A2EACA
S11305002AED3FE049EC5FEB15D003DF0F90039435
S113051001FC9058ECE8F0E06EC0EDDE30F0F2DE65
S113052020F031F49F3F11F41EF4E2CE0EF4E09576
S1130530E7FBD8CEE92FFEDE80F3BA176207730714
S11305408407950718F071F49EF516CF0EF4E09524
S11305500B2EBA2FA02D0B01B90190010C01CA0179
S1130560A0011124FF27591B99F0593F50F4503E24
S113057068F11A16F040A22F232F342F4427585F16
S1130580F3CF469537952795A795F0405395C9F72E
S11305907EF41F16BA0B620B730B840BBAF09150E6
S11305A0A1F0FF0FBB1F661F771F881FC2F70EC085
S11305B0BA0F621F731F841F48F487957795679558
S11305C0B795F7959E3F08F0B3CF9395880F08F041
S11305D09927EE0F9795879508959F3F31F0915095
S11305E020F4879577956795B795880F911D969513
S11305F0879597F908959F938F937F936F93FF93B4
S1130600EF939B01AC01C3DEEF91FF9105D02F91D5
S11306103F914F915F91BBCEDF93CF931F930F9385
S1130620FF92EF92DF927B018C01689405C0DA2E71
S1130630EF01B9DEFE01E894A5912591359145912C
S11306405591AEF3EF0176DFFE019701A801DA942C
S113065079F7DF90EF90FF900F911F91CF91DF9189
S10906600895F894FFCF99
S9030000FC
