:1000000045C000004BC0000049C0000047C00000D0
:1000100045C0000043C0000041C000003FC00000D8
:100020003DC000003BC0000039C0000037C00000E8
:1000300035C0000033C0000031C000002FC00000F8
:100040002DC000002BC0000029C0000027C0000008
:1000500025C0000023C0000021C000001FC0000018
:100060001DC000001BC0000019C0000017C0000028
:1000700015C0000013C0000011C000000FC0000038
:100080000DC000000BC0000009C0000011241FBEFD
:10009000CFEFD0E1DEBFCDBF4ED140C3B1CF2F9265
:1000A0003F926F927F928F929F92AF92BF92CF9228
:1000B000DF92EF92FF920F931F93CF93DF93CDB711
:1000C000DEB72E970FB6F894DEBF0FBECDBF9C01F2
:1000D0003B0184EF91E0B901FAD21B0180E090E08E
:1000E0009E878D870BC185B3816085BBB101032CD1
:1000F000000C880B990BD4D14B015C012BEA3AEA36
:100100004AEA50E481D26B017C0120E030E040E813
:1001100050E4C501B40178D269837A838B839C83D0
:1001200020E030E040E85FE3C701B6011FD188233B
:100130000CF46AC020E03FEF4FE757E469817A8111
:100140008B819C815DD218160CF047C020E030E016
:100150004AE754E4C501B4010DD169877A878B87DA
:100160009C8720E030E04AE755E44ED26D837E83E1
:100170008F83988720E030E040E85FE3F7D0882362
:1001800034F120E03FEF4FE757E46D817E818F81AE
:10019000988536D21816ACF420E030E040E251E405
:1001A00069857A858B859C852FD24CD106C080E9E4
:1001B00091E00197F1F76150710961157105B9F787
:1001C00024C06D817E818F8198853CD102C061E021
:1001D00070E0CB010197F1F718C020E030E04FE765
:1001E00053E4C701B6010CD218164CF469817A8128
:1001F0008B819C8127D1CB010197F1F709C0C70101
:10020000B60120D1162F01C011E0812F8A95F1F798
:1002100085B38E7F85BB20E030E040E85FE3C70117
:10022000B601A4D088230CF460C020E03FEF4FE774
:1002300057E469817A818B819C81E2D118160CF098
:100240003DC020E030E04AE754E4C501B40192D05B
:100250004B015C0120E030E04AE755E4D5D16B0169
:100260007C0120E030E040E85FE380D0882304F1A7
:1002700020E03FEF4FE757E4C701B601C1D11816A0
:100280009CF420E030E040E251E4C501B401BCD16F
:10029000D9D006C080E991E00197F1F7615071096A
:1002A00061157105B9F722C0C701B601CBD002C0F4
:1002B00061E070E0CB010197F1F718C020E030E079
:1002C0004FE753E4C701B6019BD118164CF469817E
:1002D0007A818B819C81B6D0CB010197F1F709C05F
:1002E000C701B601AFD0062F01C001E0802F8A956B
:1002F000F1F78D859E8501969E878D878D859E85DC
:10030000861597050CF4EFCE2E960FB6F894DEBF47
:100310000FBECDBFDF91CF911F910F91FF90EF9056
:10032000DF90CF90BF90AF909F908F907F906F9015
:100330003F902F90089517BA81E088BB84B3816005
:1003400084BBB099FECF0CC068E070E080E491E01F
:10035000A6DE6CE070E080EE91E0A1DE219602C0A6
:10036000C0E0D0E0C431D1057CF3EBCFD4D008F4A9
:1003700081E008950CD00AC102D140F0F9D030F0EC
:1003800021F45F3F19F0EBC0511134C1EEC00FD121
:1003900098F39923C9F35523B1F3951B550BBB274C
:1003A000AA2762177307840738F09F5F5F4F220FF9
:1003B000331F441FAA1FA9F333D00E2E3AF0E0E8F2
:1003C00030D091505040E695001CCAF729D0FE2F3E
:1003D00027D0660F771F881FBB1F261737074807D0
:1003E000AB07B0E809F0BB0B802DBF01FF27935886
:1003F0005F4F2AF09E3F510568F0B1C0FBC05F3FE0
:10040000ECF3983EDCF3869577956795B795F7956D
:100410009F5FC9F7880F911D9695879597F9089565
:10042000E1E0660F771F881FBB1F62177307840701
:10043000BA0720F0621B730B840BBA0BEE1F88F710
:10044000E0950895BCD088F09F5790F0B92F992778
:10045000B751A0F0D1F0660F771F881F991F1AF0CF
:10046000BA95C9F712C0B13081F0C3D0B1E0089598
:10047000C0C0672F782F8827B85F39F0B93FCCF319
:10048000869577956795B395D9F73EF490958095C5
:10049000709561957F4F8F4F9F4F0895E89409C0E5
:1004A00097FB3EF490958095709561957F4F8F4FA7
:1004B0009F4F9923A9F0F92F96E9BB279395F695BD
:1004C000879577956795B795F111F8CFFAF4BB0F3B
:1004D00011F460FF1BC06F5F7F4F8F4F9F4F16C09F
:1004E000882311F096E911C0772321F09EE8872F29
:1004F000762F05C0662371F096E8862F70E060E0E5
:100500002AF09A95660F771F881FDAF7880F96955D
:10051000879597F90895990F0008550FAA0BE0E801
:10052000FEEF16161706E807F907C0F012161306B5
:10053000E407F50798F0621B730B840B950B39F4F5
:100540000A2661F0232B242B252B21F408950A265B
:1005500009F4A140A6958FEF811D811D089597F99B
:100560009F6780E870E060E008959FEF80EC089559
:1005700000240A9416161706180609060895002482
:100580000A9412161306140605060895092E0394FC
:10059000000C11F4882352F0BB0F40F4BF2B11F470
:1005A00060FF04C06F5F7F4F8F4F9F4F089557FDCF
:1005B0009058440F551F59F05F3F71F04795880FD1
:1005C00097FB991F61F09F3F79F087950895121668
:1005D00013061406551FF2CF4695F1DF08C0161614
:1005E00017061806991FF1CF8695710561050894C5
:1005F0000895E894BB2766277727CB0197F90895DC
:100600008ADF08F48FEF08950BD0C0CFB1DF28F058
:10061000B6DF18F0952309F0A2CFA7CF1124EACFB7
:10062000C6DFA0F3959FD1F3950F50E0551F629F51
:10063000F001729FBB27F00DB11D639FAA27F00D3B
:10064000B11DAA1F649F6627B00DA11D661F829F62
:100650002227B00DA11D621F739FB00DA11D621F47
:10066000839FA00D611D221F749F3327A00D611D64
:10067000231F849F600D211D822F762F6A2F112446
:100680009F5750408AF0E1F088234AF0EE0FFF1F99
:10069000BB1F661F771F881F91505040A9F79E3FD0
:1006A000510570F05CCFA6CF5F3FECF3983EDCF3D2
:1006B000869577956795B795F795E7959F5FC1F70D
:1006C000FE2B880F911D9695879597F9089597FBB6
:1006D000072E16F4009406D077FD08D00BD007FC47
:1006E00005D03EF4909581959F4F08957095619542
:1006F0007F4F0895AA1BBB1B51E107C0AA1FBB1F58
:10070000A617B70710F0A61BB70B881F991F5A959D
:10071000A9F780959095BC01CD010895F894FFCF7D
:00000001FF
