S012000054696D65725F4D6F64652E737265632D
S113000045C0000060C000005EC000005CC000008D
S11300105AC0000081C0000056C0000054C0000057
S113002052C0000050C000004EC000004CC0000090
S11300304AC0000048C0000046C0000044C00000A0
S113004043C0000040C000003EC000003CC00000AF
S11300503AC0000038C0000036C0000034C00000C0
S113006032C0000030C000002EC000002CC00000D0
S11300702AC0000028C0000026C0000024C00000E0
S113008022C0000020C000001EC0000011241FBEBA
S1130090CFEFD0E1DEBFCDBF11E0A0E0B1E0E0E200
S11300A0F4E000E00BBF02C007900D92AA30B10744
S11300B0D9F721E0AAE0B1E001C01D92AF30B20748
S11300C0E1F778D0ABC19CCF1F920F920FB60F927D
S11300D011248F939F9380910B0190910C010196B1
S11300E090930C0180930B0180910A01813011F0EF
S11300F0833049F480910D0190910E010196909303
S11301000E0180930D0186E082BF9F918F910F9025
S11301100FBE0F901F9018951F920F920FB60F925B
S113012011248F9380910A01813051F028F082309C
S113013059F0833069F00EC081E080930A010AC04F
S113014082E080930A0106C083E080930A0102C022
S113015010920A018F910F900FBE0F901F90189567
S1130160E82FF0E0E050FF4F808185BB81E090E014
S113017002C0880F991F6A95E2F78093650008957D
S11301808FEF84BB8FE08093640082B18F7E82B94D
S113019083B1806183B98AB782608ABF89B780617D
S11301A089BF83B7846083BF87B7816087BF86E0D8
S11301B082BF0895E5DF789440910B0150910C01C2
S11301C09A01ADECBCEC1BD19695879596958795D5
S11301D0969587959C01220F331F880F991F880FCE
S11301E0991F880F991F820F931F4817590721F5EC
S11301F020910D0130910E0102D1AC015695479525
S113020056954795569547959A01F9D096958795B1
S113021096958795969587959C01220F331F880F95
S1130220991F880F991F880F991F820F931F63E0EE
S1130230242F281B822F94DF40910B0150910C0135
S11302409A01ADECBCECDBD0969587959695879595
S1130250969587959C01220F331F880F991F880F4D
S1130260991F880F991F820F931F9A01281B390B1E
S11302702230310541F520910D0130910E01369562
S1130280279536952795ABE7B4E1B9D0AC015695DF
S113029047959A01ADECBCECB2D0969587959695AE
S11302A08795969587959C01220F331F880F991F78
S11302B0880F991F880F991F820F931F62E0342FB4
S11302C0381B832F4DDF40910B0150910C019A0193
S11302D0ADECBCEC94D096958795969587959695BC
S11302E087959C01220F331F880F991F880F991F30
S11302F0880F991F820F931F9A01281B390B2430F2
S1130300310571F520910D0130910E013695279537
S11303103695279536952795A5ECB0E270D0AC01BB
S1130320529542954F7045275F7045279A01ADEC71
S1130330BCEC65D096958795969587959695879507
S11303409C01220F331F880F991F880F991F880F54
S1130350991F820F931F61E0342F381B832F00DF16
S113036040910B0150910C019A01ADECBCEC47D0CB
S11303709695879596958795969587959C01220FD6
S1130380331F880F991F880F991F880F991F820F99
S1130390931F9A01281B390B2830310509F00CCF23
S11303A020910D0130910E01329522952F70232753
S11303B03F702327A7E4B3E022D0AC0156954795BC
S11303C056954795569547959A01ADECBCEC17D0D8
S11303D09695879596958795969587959C01220F76
S11303E0331F880F991F880F991F880F991F820F39
S11303F0931F60E0342F381B832FB2DEDDCEA29F23
S1130400B001B39FC001A39F700D811D1124911DE4
S1130410B29F700D811D1124911D0895F894FFCF92
S10D042088BEC4A4B2A183BC80B05E
S9030000FC
