:1000000045C0000060C000005EC000005CC0000091
:100010005AC0000058C0000056C0000054C0000084
:1000200052C0000050C000004EC000004CC0000094
:100030004AC0000048C0000046C0000044C00000A4
:1000400043C0000040C000003EC000003CC00000B3
:100050003AC0000052C0000036C0000034C00000AA
:1000600032C0000030C000002EC000002CC00000D4
:100070002AC0000028C0000026C0000024C00000E4
:1000800022C0000020C000001EC0000011241FBEBE
:10009000CFEFD0E1DEBFCDBF11E0A0E0B1E0E2EBF9
:1000A000F3E000E00BBF02C007900D92AA30B10749
:1000B000D9F721E0AAE0B1E001C01D92AE30B2074D
:1000C000E1F747D174C19CCF1F920F920FB60F92E8
:1000D00011248F939F9380910C0190910D010196B3
:1000E00090930D0180930C0182E882BF9F918F91C4
:1000F0000F900FBE0F901F9018951F920F920FB682
:100100000F9211248F939F9384B195B190930B011B
:1001100080930A019F918F910F900FBE0F901F90B7
:100120001895E82FF0E0E050FF4F808185BB81E01B
:1001300090E002C0880F991F6A95E2F780936500EE
:100140000895CF93DF93EC0140910C0150910D0184
:100150009A01ADECBCEC1CD1969587959695879548
:10016000969587959C01220F331F880F991F880F42
:10017000991F880F991F820F931F48175907C1F4C1
:100180009E0106D196958795969587959695879524
:100190009C01220F331F880F991F880F991F880F0A
:1001A000991F820F931F63E02C2F281B822FB9DF2A
:1001B00040910C0150910D019A01ADECBCECE8D0DE
:1001C0009695879596958795969587959C01220F8C
:1001D000331F880F991F880F991F880F991F820F4F
:1001E000931F9A01281B390B2230310509F59E0116
:1001F000CFD0AC015695479556954795569547955E
:100200009A01C6D0969587959695879596958795E8
:100210009C01220F331F880F991F880F991F880F89
:10022000991F820F931F62E0342F381B832F79DFD1
:1002300040910C0150910D019A01ADECBCECA8D09D
:100240009695879596958795969587959C01220F0B
:10025000331F880F991F880F991F880F991F820FCE
:10026000931F9A01281B390B2430310529F59E0173
:100270003695279536952795ABE7B4E189D0AC0143
:10028000569547959A01ADECBCEC82D09695879532
:1002900096958795969587959C01220F331F880F19
:1002A000991F880F991F880F991F820F931F61E074
:1002B000342F381B832F35DF40910C0150910D01F5
:1002C0009A01ADECBCEC64D0969587959695879590
:1002D000969587959C01220F331F880F991F880FD1
:1002E000991F880F991F820F931F9A01281B390BA2
:1002F0002630310559F59E01369527953695279577
:1003000036952795A5ECB0E243D0AC0152954295C5
:100310004F7045275F7045279A01ADECBCEC38D093
:100320009695879596958795969587959C01220F2A
:10033000331F880F991F880F991F880F991F820FED
:10034000931F60E0342F381B832FEBDEDF91CF91BA
:1003500008958FEF84BB8FE08093640083B785603E
:1003600083BF87B7816087BF82E882BF80E487B997
:1003700086B1876886B986B1886286B986B180649D
:1003800086B9789480910A0190910B01DADEFACF58
:10039000A29FB001B39FC001A39F700D811D1124C6
:1003A000911DB29F700D811D1124911D0895F89427
:0203B000FFCF7D
:0A03B20088BEC4A4B2A183BC80B0D1
:00000001FF
