:1000000045C0000058C0000056C0000054C00000A9
:1000100052C0000050C000004EC000004CC00000A4
:100020004AC0000048C0000046C0000044C00000B4
:1000300042C0000040C000003EC000003CC00000C4
:100040003AC0000038C0000036C0000034C00000D4
:1000500032C0000030C000002EC000002CC00000E4
:100060002AC0000028C0000026C0000024C00000F4
:1000700022C0000020C000001EC000001CC0000004
:100080001AC0000018C0000016C0000011241FBED6
:10009000CFEFD0E1DEBFCDBF11E0A0E0B1E0EAEAF2
:1000A000F1E000E00BBF02C007900D92AA30B1074B
:1000B000D9F702D078C0A4CFCF93DF93CDB7DEB706
:1000C0002A970FB6F894DEBF0FBECDBF8AE0E0E0FE
:1000D000F1E0DE01119601900D928A95E1F78FEF24
:1000E0008ABB89818BBB87B38E7F87BB88B38160D6
:1000F00088BB84B3816084BB00E010E0E0E0F0E006
:1001000040E050E0B09918C00F5F1F4F0A30110552
:1001100011F400E010E0A1E0B0E0AC0FBD1FA00FB3
:10012000B11F8C918BBB2FEF83EC99E02150804065
:100130009040E1F700C000009A01ADECBCEC24D087
:10014000929582958F7089279F70892764E1689FB7
:100150009001699F300D11244217530729F485B38C
:10016000816085BBE0E0F0E0E017F10719F485B3AA
:100170008E7F85BB8FE99FE00197F1F700C00000FB
:1001800031964F5F5F4FBECFA29FB001B39FC001BA
:10019000A39F700D811D1124911DB29F700D811DB3
:0A01A0001124911D0895F894FFCF7B
:0A01AA0088BEC4A4B2A183BC80B0DB
:00000001FF
